:020000040000FA
:0400000040EF00F0DD
:020004000000FA
:040008000EEF00F007
:040018003EEF00F0C7
:04001C000500FD6E70
:10002000D850FE6EE050FF6EF2B405D09EBA1CD0E0
:100030009EB810D01CD0F294000189786051D66E21
:100040006151D76E210E656F6351D96E6451DA6EBE
:100050009D880DD00001652F04D00A0EAD6E9D98CD
:1000600006D0DE50AD6E03D0AE50AD6E00D0FF5066
:10007000E06EFE50D86EFD5006001000000010002B
:10008000F5EC00F0F6EC00F0DCEC00F0BAEC00F07F
:10009000000E006E010E016ECFEC00F0806A896ADE
:1000A0000F0EC16E070EB46E926A0101300E006F22
:1000B000310E016F320E026F330E036F340E046F78
:1000C000350E056F360E066F370E076F380E086F48
:1000D000390E096F410E0A6F420E0B6F430E0C6F03
:1000E000440E0D6F450E0E6F460E0F6F200E106FF3
:1000F000480E116F650E126F6C0E136F6C0E146F3D
:100100006F0E156F200E166F770E176F6F0E186F2C
:10011000720E196F6C0E1A6F640E1B6F230E1C6F1C
:10012000230E1D6F230E1E6F230E1F6FD5EC00F0E4
:10013000EFEC00F0816A836A0E0EC16E936A956AD5
:100140008A808A3602E2A1EF00F08C3602E2A5EF47
:1001500000F08C3202E2A9EF00F08A32F2E2ADEF59
:1001600000F0000E006E000E016E002EFED7012E74
:04017000FCD71200A6
:0C0174009D9A9D98829E829C8B9E8B9C85
:10018000948E948C240EAC6E900EAB6E420EB86EB4
:10019000190EAF6E9E9A9E989F8A9F88120000014A
:1001A0000050636F0150646F12009D8AAB8E120085
:0801B0009D989D9AAB9E120080
:0801B8000001070ED56E480E90
:1001C000616FE40E606FD66AD76AF184F294F28AA6
:1001D0001200D59E0050D66E0150D76E1200D58EFB
:0601E0001200D59E120082
:0A01E600F3EF00F01200F29EF29C0D
:0801F000D08EF28CF28E120099
:020000040030CA
:0100000004FB
:010001000EF0
:0100020019E4
:010003001EDE
:01000500807A
:010006008178
:010008000FE8
:01000900C036
:01000A000FE6
:01000B00E014
:01000C000FE4
:01000D0040B2
:00000001FF
