:020000040000FA
:040000004BEF00F0D2
:020004000000FA
:040008000EEF00F007
:0400180049EF00F0BC
:04001C000500FD6E70
:10002000D850FE6EE050FF6EF2B405D09EBA27D0D5
:100030009EB812D027D000016151D76E6051D66EA4
:100040008978F2940101000E006E010E016E210EFE
:10005000026ED2EC00F016D000016251D96E6351ED
:10006000DA6E662F05D00A0EAD6E9D98676B0AD0CA
:10007000DE50AD6ED950626FDA50636F03D0AE5070
:10008000AD6E00D0FF50E06EFE50D86EFD50060001
:1000900010000000100016EC01F017EC01F0FFEC6E
:1000A00000F0AFEC00F0CEEC00F0480E016EE50E73
:1000B000006E0AEC01F0000E006E010E016E210EC2
:1000C000026E0101480E006F650E016F6C0E026F2B
:1000D0006C0E036F6F0E046F200E056F770E066FA8
:1000E0006F0E076F720E086F6C0E096F640E0A6F49
:1000F000200E0B6F300E0C6F310E0D6F320E0E6F27
:10010000330E0F6F340E106F350E116F360E126FE7
:10011000370E136F380E146F390E156F410E166FB0
:10012000420E176F430E186F440E196F450E1A6F6B
:10013000460E1B6F300E1C6F400E1D6F230E1E6F80
:10014000260E1F6FE9EC00F0806A896A0F0EC16EFF
:0E015000070EB46E926A10EC01F0ADEF00F0F5
:02015E0000019E
:10016000666B686B676B696B626B636B646B656B0B
:100170009D9A9D989E9A9E98829E829C8B9E8B9C17
:10018000948E948C240EAC6E900EAB6E420EB86EB4
:10019000190EAF6E9F8A9F88AB8E1200AB8E120035
:1001A000AB9E1200000167B10BD00050626F01508E
:1001B000636F0250666F006A67819D88006A120053
:1001C0006751006E12009D980001020E676F006E6D
:1001D0001200000169B10AD00050646F0150656FD0
:1001E0000250686F69819D8A006A12006951006E31
:0E01F00012009D9A0001020E696F006E12004F
:0201FE000001FE
:10020000070ED56E616B606BD66AD76AF184F29483
:10021000F28A1200D59E0050606E0150616E12008D
:08022000D58E1200D59E1200DC
:0802280014EF01F01200F29E38
:0A023000F29CD08EF28CF28E1200C8
:020000040030CA
:0100000004FB
:010001000EF0
:0100020019E4
:010003001EDE
:01000500807A
:010006008178
:010008000FE8
:01000900C036
:01000A000FE6
:01000B00E014
:01000C000FE4
:01000D0040B2
:00000001FF
